:100000000C942A000C9447000C9447000C94470071
:100010000C9447000C9447000C9447000C94470044
:100020000C9447000C9447000C9447000C94470034
:100030000C9447000C94AC020C9469020C94470099
:100040000C9447000C9447000C9447000C94470014
:100050000C94470011241FBECFE5D8E0DEBFCDBF12
:1000600012E0A0E6B0E0E6E5FBE002C005900D92EC
:10007000AA3CB107D9F722E0AAECB2E001C01D9278
:10008000AD3FB207E1F70E9449020C94A9050C9418
:1000900000001F93CF93DF93D82F162F4423B1F086
:1000A000C42F111103C0959A969802C09598969AFC
:1000B0008D2F0E945F022FEF89E698E1215080404A
:1000C0009040E1F700C00000C15059F7959896980C
:1000D00080E00E945F02DF91CF911F91089581B36C
:1000E000806E81BB82B38F7982BB0E944D020895DE
:1000F0001092600048E060E084E60E9449000895A4
:1001000081E08093600048E061E084E60E9449005D
:1001100008951F93CF93DF93C5E6D0E011E0499196
:10012000612F80EA0E9467012FE788E391E0215068
:1001300080409040E1F700C000001F5F153079F764
:10014000DF91CF911F9108951F93CF93DF93C1E665
:10015000D0E015E04991612F80EA0E9467012FE706
:1001600088E391E0215080409040E1F700C000001A
:100170001F5F193079F7DF91CF911F910895FF929A
:100180000F931F93CF93DF931F92CDB7DEB71982E2
:100190000E94C501AE014F5F5F4F60E080EA0E94A0
:1001A000900189818A3A99F505E610E0FF24F394DD
:1001B000A8016F2D80EA0E9490012FE788E391E06B
:1001C000215080409040E1F700C00000F3940F5FA1
:1001D0001F4F25E0F212ECCF01E610E00F2EF5E004
:1001E000FF2EF02DA8016F2D80EA0E9490018FE76D
:1001F00098E321E0815090402040E1F700C00000EA
:10020000F3940F5F1F4F89E0F812ECCF0FC04AEA5A
:1002100060E080EA0E9467018FE39CE90197F1F7B3
:1002200000C000000E9489000E94A4000F90DF918E
:10023000CF911F910F91FF90089511B888E880B970
:1002400086B7846086BF089584EA86BF06B607FE37
:10025000FDCF91B1987F81E0983009F480E0089556
:10026000860F83B984E886BF06B607FEFDCF81B14D
:10027000887F803439F091B1987F81E0983119F40A
:1002800080E0089580E0089583B984E886BF06B6CB
:1002900007FEFDCF91B1987F81E0983209F480E0AC
:1002A000089584E986BF089584EA86BF06B607FEEE
:1002B000FDCF91B1987F81E0903109F480E00895FD
:1002C00084E886BF06B607FEFDCF83B108951F936D
:1002D000CF93DF93C82FD62F142F0E942401813093
:1002E000A1F060E08C2F0E943001813081F08D2FD1
:1002F0000E944401813069F0812F0E9444018130C5
:1003000051F00E94510180E007C081E005C081E00A
:1003100003C081E001C081E0DF91CF911F9108957A
:100320000F931F93CF93DF93182F062FEA010E949C
:1003300024018130E1F060E0812F0E9430018130A2
:10034000C1F0802F0E9444018130A9F00E94540125
:10035000813099F061E0812F0E943001813079F085
:100360000E94600188830E94510180E009C081E001
:1003700007C081E005C081E003C081E001C081E0E9
:10038000DF91CF911F910F9108950E941D01089553
:100390000E94EF020E9487040E946F000E94BF002B
:1003A00008950E94F2020E94D5032FEF80E792E0A9
:1003B000215080409040E1F700C000000E94DE0321
:1003C0008091CB02813031F40E94B0048091CB0245
:1003D0008130D1F30E94E403882371F02FEF80E78E
:1003E00092E0215080409040E1F700C000000E9460
:1003F000FE020E94F202D5CF0895CF93C1E02FEF05
:1004000080E792E0215080409040E1F700C000007A
:100410000E94FE022FE788E391E021508040904047
:10042000E1F700C000000E94FE020E94F2020E945A
:100430002D04C093CB020E947D058091CB028130B8
:1004400031F40E94B0048091CB028130D1F30E943C
:1004500058048F3FA1F2853091F6CF910895809195
:10046000CA02813051F018F0823091F40CC00E9421
:10047000C80181E08093CA0208950E94D10182E000
:100480008093CA0208950E94FD0181E08093CA0210
:10049000089578940E942F02FDCF85B5806485BDB4
:1004A00085B5877F85BD85B58F7E85BD85B5806225
:1004B00085BD85B5876085BD13BC14BC08952FEF3D
:1004C000829FC001112464E670E00E94810563BD33
:1004D00008951F920F920FB60F9211242F933F93FE
:1004E0004F935F936F937F938F939F93AF93BF933C
:1004F000EF93FF93E091F702F091F802828182304E
:10050000B0F083810190F081E02DE80FF11D808132
:100510008CB9E091F702F091F80283818F5F8383B9
:100520009281891308C013820E947B0504C08081D8
:100530008CB90E947B05FF91EF91BF91AF919F9184
:100540008F917F916F915F914F913F912F910F907C
:100550000FBE0F901F9018951F920F920FB60F921B
:1005600011242F933F934F935F936F937F938F93B8
:100570009F93AF93BF93EF93FF9380916C00909103
:100580006B008917C8F49CB19D3069F0E091690057
:10059000F0916A00E80FF11D9083ECE6F0E08081B5
:1005A0008F5F80830BC080936B0010926C000E9461
:1005B00079051092CB0202C010926C00FF91EF916E
:1005C000BF91AF919F918F917F916F915F914F916B
:1005D0003F912F910F900FBE0F901F9018950E9482
:1005E0006E05089583EE92E090936A00809369000F
:1005F00084E180936B0010926C00089581E790E095
:100600009093F8028093F7020E947F0508959093DB
:10061000F8028093F7020E947F052FEF80E792E0B7
:10062000215080409040E1F700C000000E94FE028F
:100630002FEF80E792E0215080409040E1F700C02A
:1006400000000E94FE022FEF80E792E021508040E0
:100650009040E1F700C00000089585E890E00E9416
:100660000703089580916000813039F48DE890E0AF
:100670000E9407030E947800089589E790E00E9495
:10068000070308958091CD02843011F581E08093B5
:10069000CC0287E00E94A1042FEF84E39CE021506C
:1006A00080409040E1F700C0000089E00E94A10472
:1006B00081E890E00E9407030E9478008AE00E948F
:1006C000A10489E890E00E9407030E948000089539
:1006D0008DE790E00E9407030895809160008111EA
:1006E00007C089E890E00E9407030E9480000895F7
:1006F00085E790E00E940703089581E990E09093D8
:10070000F8028093F7020E947F052FEF80E792E0C6
:10071000215080409040E1F700C0000081E08093CC
:10072000CB020E947D058091CB028130E1F3A09144
:100730006900B0916A00E1E6F0E085E690E02D9175
:100740002193E817F907D9F70E94F2020E94A4004A
:10075000089585E990E09093F8028093F7020E9453
:100760007F052FEF80E792E0215080409040E1F735
:1007700000C0000081E08093CB020E947D05809143
:10078000CB028130E1F3A0916900B0916A00E5E607
:10079000F0E089E690E02D912193E817F907D9F769
:1007A0000E94F2020E94890008958DEB90E09093E0
:1007B000F8028093F7020E947F0508950E947D054C
:1007C00081E08093CB020895CF93DF9300D0CDB723
:1007D000DEB71A8280916B00843051F085EB90E097
:1007E0009093F8028093F7020E947F0581E030C069
:1007F000198289818430B8F48091690090916A00EF
:1008000041E02981E981DC01A20FB11DF0E0EB5943
:10081000FF4F3C91208132134A8329812F5F298326
:100820002981243070F38A81813049F485EB90E08E
:100830009093F8028093F7020E947F0508C089EB2D
:1008400090E09093F8028093F7020E947F058A81DE
:100850000F900F90DF91CF910895CF93DF93C0E079
:10086000D0E0CE01880F991F880F991F83569F4FA4
:100870009093F8028093F7020E947F052FEF80E7A4
:1008800092E0215080409040E1F700C000000E94BB
:10089000FE022196C630D10521F789E990E09093B8
:1008A000F8028093F7020E947F05DF91CF910895AF
:1008B000CF93DF931F92CDB7DEB7E0916900F0913F
:1008C0006A008081898380916B008130B9F40E9435
:1008D000F20289818033A0F08981863398F489817E
:1008E00080538983E981F0E0EE0FFF1FEF53FF4F44
:1008F0000190F081E02D0995898105C08FEF03C03B
:100900008FEF01C08FEF0F90DF91CF9108956E9A16
:100910006D986B986A98689A699A70986C9ABD9A63
:10092000BF9ABC9ABE98C49A08958FB9779BFECFA0
:100930000895779BFECF8FB10895C4980895C49A07
:100940000895CF93C82F0E949D048C2F0E94950478
:100950000E949904C82F0E949F048C2FCF91089564
:10096000CF938091CD02823009F48CC030F488237B
:1009700059F0813009F0B0C02FC0833009F498C01D
:10098000843009F0A9C0A0C081E00E94A104823097
:10099000C9F42FE788E391E0215080409040E1F7CF
:1009A00000C0000081E08093CD0283E00E94A1049A
:1009B0002FE788E391E0215080409040E1F700C0AC
:1009C00000008AC02FEF82E597E0215080409040E0
:1009D000E1F700C0000080C01092CE02C0E083E0CA
:1009E0000E94A104EC2FF0E0E750FD4F80832FE739
:1009F00088E391E0215080409040E1F700C0000082
:100A0000C091CE02CF5FC093CE02C33040F388E0E6
:100A10000E94A104EC2FF0E0E750FD4F80832FEF00
:100A200081EE94E0215080409040E1F700C000004A
:100A30001092CE02E9EFF2E0A1E6B0E08DEF92E095
:100A400040E051E031912D913213452FE817F9071D
:100A5000C9F7411107C082E08093CD0284E00E9473
:100A6000A10406C083E08093CD0285E00E94A1042A
:100A70002FE788E391E0215080409040E1F700C0EB
:100A800000002AC02FEF88E09DE321508040904075
:100A9000E1F700C0000089E00E94A1040E947800F4
:100AA0008AE00E94A1040E9480001092CD0214C02E
:100AB00080E00E94A104863021F484E08093CD027E
:100AC0000BC01092CD0208C08091CC02813021F47D
:100AD0001092CC021092CD02CF9108955998589857
:100AE0005298539A549A86E880BD83E389B910BC22
:100AF00008955798089555980895579A0895559AC6
:100B0000089597FB072E16F4009407D077FD09D0BF
:100B10000E94950507FC05D03EF4909581959F4F66
:100B20000895709561957F4F0895AA1BBB1B51E1F5
:100B300007C0AA1FBB1FA617B70710F0A61BB70B4D
:100B4000881F991F5A95A9F780959095BC01CD01F2
:060B50000895F894FFCFA8
:100B5600013131313131323334CF02140008000112
:100B6600000D000100CD002000EF00210011012240
:100B760000340127005C0121007E011A0041011AA0
:100B86000099011A00B4011B00D0010400D5011E12
:100B960000F4011D00120217002A02180043021871
:100BA600005D0210006E021F008E021900A80220CE
:100BB60000A9037D0332036D0342032D034741520F
:100BC60041474520495320414C5245414459204311
:100BD6004C4F534544202E2E2E2E2E2E2E200047CF
:100BE600415241474520495320414C5245414459C1
:100BF600204F50454E4544202E2E2E2E2E2E2E2092
:100C060000534C41564520495320414C52454144DE
:100C16005920554E4C4F434B4544202E2E2E2E2EFA
:100C26002E2E2000554E4C4F434B494E4720202C2C
:100C360020474152414745204953204F50454E4990
:100C46004E47202E2E2E2E2E2E2E20004C4F47495C
:100C56004E47204F5554202C20504C45415345209B
:100C660057414954202E2E2E2E2E2E2E200047413F
:100C76005241474520495320434C4F53494E472044
:100C86002E2E2E2E2E2E2E2000454E544552205509
:100C9600534552204E45572050415353574F5244C7
:100CA600203A2000454E5445522041444D494E209D
:100CB6004E45572050415353574F5244203A200037
:100CC6003E3E3E2000454E544552203020544F2093
:100CD6005345542041444D494E2050415353574F9C
:100CE60052442000454E544552203120544F205343
:100CF600455420555345522050415353574F524463
:100D06002000454E544552203220544F204F504526
:100D16004E204741524147452000454E54455220FA
:100D26003320544F20434C4F5345204741524147AF
:100D3600452000454E544552203420544F20554EF0
:100D46004C4F434B204741524147452000454E54A6
:100D56004552203520544F204558495420005752BB
:100D66004F4E472050415353574F524420545259E7
:100D760020414741494E202E2E2E2E2E20004C4F2C
:100D860047494E205355434345535346554C4C59BA
:100D9600202E2E2E2E2E2000454E54455220414404
:100DA6004D494E2050415353574F524420544F20E3
:0A0DB6004C4F47494E203A20000040
:00000001FF
