:100000000C942A000C9447000C9447000C94470071
:100010000C9447000C9447000C9447000C94470044
:100020000C9447000C9447000C9447000C94470034
:100030000C94A6030C9447000C9447000C944700C2
:100040000C9447000C9447000C9447000C94470014
:100050000C94470011241FBECFE5D8E0DEBFCDBF12
:1000600010E0A0E6B0E0EEE0F8E002C005900D92EE
:10007000A43DB107D9F720E0A4EDB0E001C01D9286
:10008000AC3DB207E1F70E94E4010C9405040C9426
:10009000000080B3807782958F7008959098919A30
:1000A000929A939A0E944900873031F00E94490049
:1000B0008730E1F780E00895909A9198929A939A08
:1000C0000E944900873031F00E9449008730E1F7F3
:1000D00081E00895909A919A9298939A0E9449008B
:1000E000873031F00E9449008730E1F782E00895BF
:1000F000909A919A929A93980E944900873031F091
:100100000E9449008730E1F783E008958FEF08955A
:1001100081B38F6081BB81B38F7881BB82B3807FD5
:1001200082BB0E9449008530A1F0863019F08330EF
:1001300071F51EC00E944E008F3F59F190E0FC0106
:10014000EE0FFF1F8E0F9F1FFC01E05AFF4F8081B3
:1001500008950E944E008F3FF1F090E0FC01EE0FF9
:10016000FF1F8E0F9F1FFC01E05AFF4F81810895F2
:100170000E944E008F3F89F090E0FC01EE0FFF1FC0
:100180008E0F9F1FFC01E05AFF4F8281089581E08E
:10019000089581E0089581E0089581E00895AC9A82
:1001A00085E38A95F1F70000AC980895CF93C82FA6
:1001B00085B39C2F92959F70807F892B85BBAD98CE
:1001C0000E94CF008FE99FE00197F1F700C0000087
:1001D00085B3CF70807FC82BC5BB0E94CF008BE258
:1001E00091E00197F1F700C00000CF91089581E000
:1001F0000E94D6002FEF80E792E02150804090408F
:10020000E1F700C0000008958FE295E70197F1F74C
:1002100000C000008FEF84BB83E30E94D60082E31E
:100220000E94D60088E20E94D6008CE00E94D60090
:100230000895CF93C82F623058F5403108F04F70C1
:10024000611103C0842F805802C0842F80540E9403
:10025000D60085B39C2F92959F70807F892B85BB9C
:10026000AD9A0E94CF008FE99FE00197F1F700C09F
:10027000000085B3CF70807FC82BC5BB0E94CF0024
:100280008BE291E00197F1F700C0000080E001C02F
:1002900081E0CF9108950F931F93CF93DF93EC01EB
:1002A000062F142FE82FFD2FDF010D900020E9F716
:1002B0001197AE1BBF0BBB2780E190E0841B910917
:1002C0008A179B076CF08881882361F02196412F63
:1002D000602F0E9419011F5F89918111F8CF03C01F
:1002E00081E001C080E0DF91CF911F910F910895CF
:1002F0000F931F93CF93DF93EC01062F142FE82F5A
:10030000FD2FDF010D900020E9F71197AE1BBF0B09
:10031000BB2780E190E0841B91098A179B07B4F00A
:1003200088818823A9F02196412F602F0E9419010E
:100330001F5F9FE729EA83E0915020408040E1F76A
:1003400000C0000089918111EFCF03C081E001C09E
:1003500080E0DF91CF911F910F9108950E94F700E7
:100360002FEF80E792E0215080409040E1F700C0FD
:10037000000040E060E08CE690E00E9478012FEF02
:1003800080E792E0215080409040E1F700C00000FB
:1003900008950E94F7002FEF80E792E021508040FF
:1003A0009040E1F700C0000040E060E08BE790E0A3
:1003B0000E9478012FEF80E792E02150804090402A
:1003C000E1F700C0000008950E9404010E94F803B4
:1003D0000F2EF6E0AF2EF02DCC24C3940F2EF7EDA8
:1003E000EF2EF0E0FF2EF02D6894BB24B1F8809141
:1003F000D400833009F465C028F4813041F108F05D
:100400005BC008C0853009F4F4C008F489C08630A8
:1004100071F751C10E94F7002FEF80E792E0215061
:1004200080409040E1F700C0000045E060E08AE8CD
:1004300090E00E947801EFEFF4E32CE0E150F0400F
:100440002040E1F700C00000C092D400D0CF0E944D
:10045000F7008FEF90E7E2E081509040E040E1F755
:1004600000C000004C2D60E082E990E00E9478011D
:1004700087010F2EF5E0DF2EF02DE801C8820E94E3
:10048000880088838130D9F34D2D6C2D8AE20E943B
:100490001901FFEF22E587E0F15020408040E1F7AD
:1004A00000C000000F5F1F4FD39499E0D912E5CF31
:1004B000B092D400BFB89BCF8091D4008230E1F3DA
:1004C00096CF0E94F700EFEFF0E722E0E150F04016
:1004D0002040E1F700C0000040E060E081EA90E0E9
:1004E0000E9478018091D6008930E1F70E94AE0128
:1004F0008091D6008A30E1F70E94C9018091D60030
:100500008A30E1F38FEF99E6E8E181509040E040D6
:10051000E1F700C000001092D4001092D50067CF20
:100520008091D5008F5F8093D500833008F05CC048
:100530000E94F700FFEF20E782E0F150204080406A
:10054000E1F700C0000040E060E08FEA90E00E9428
:100550004B019FEFE9E6F8E19150E040F040E1F710
:1005600000C000000E94F7002FEF80E792E02150CA
:1005700080409040E1F700C0000040E060E08FEA7A
:1005800090E00E944B01EFEFF9E628E1E150F040E6
:100590002040E1F700C000000E94F7008FEF90E7D5
:1005A000E2E081509040E040E1F700C0000040E010
:1005B00060E08EEB90E00E944B01FFEF29E688E1BE
:1005C000F15020408040E1F700C000000E94F70099
:1005D0009FEFE0E7F2E09150E040F040E1F700C02B
:1005E0000000C092D40003CF85E08093D400AFB860
:1005F000FECE0E94F7002FEF80E792E0215080406E
:100600009040E1F700C0000040E060E08FEA90E039
:100610000E944B01EFEFF9E628E1E150F040204065
:10062000E1F700C000000E94F7008FEF90E7E2E0E2
:1006300081509040E040E1F700C0000040E060E001
:100640008FEA90E00E944B01FFEF29E688E1F1502C
:1006500020408040E1F700C000000E94F7009FEFBB
:10066000E0E7F2E09150E040F040E1F700C0000028
:1006700045E060E08DEC90E00E944B012FEF80E7B9
:1006800092E0215080409040E1F700C0000080914E
:10069000D4008530E1F31092D5000E94F700EFEF0F
:1006A000F0E722E0E150F0402040E1F700C0000018
:1006B000A092D4009CCE0E94F7008FEF90E7E2E07A
:1006C00081509040E040E1F700C0000040E060E071
:1006D0008BEC90E00E947801FFEF20E782E0F15080
:1006E00020408040E1F700C000009FEFE4E3FCE021
:1006F0009150E040F040E1F700C000008091D6004A
:100700008930E1F70E94AE018091D6008A30E1F78E
:100710000E94C9018091D6008A30E1F31092D40082
:100720002FEF84E39CE0215080409040E1F700C02F
:1007300000005DCE6D986C986B986A98BD98BF98D4
:10074000BC98BE9A1FB86F9A6E9A08951F920F9226
:100750000FB60F9211248F93EF93FF938FB1809375
:10076000D6008091D6008330B1F028F4882349F078
:100770008130A9F508C0853039F100F1873079F56D
:1007800029C01FB82DC08091D400823011F48FB9D8
:1007900027C01FB825C0E091DB00F0E0E952FF4F11
:1007A00080818FB98091DB008F5F8093DB00809127
:1007B000DB008430A9F41092DB0012C083E0809348
:1007C000D40088E08FB90CC084E08093D40088E026
:1007D0008FB906C086E08093D4001FB801C01FB84F
:1007E000FF91EF918F910F900FBE0F901F90189572
:1007F00078940E949A032FEF80E792E02150804086
:0E0800009040E1F700C000000895F894FFCF8B
:10080E003132333435363738392A30234F50454E4E
:10081E00494E472047415241474500434C4F5349AB
:10082E004E47204741524147450057454C434F4D97
:10083E004500454E5445522050415353574F524454
:10084E000057454C434F4D4520204D494E410057D2
:10085E00524F4E472050415353574F52440054521B
:10086E005920414741494E202E2E00554E4C4F43A4
:04087E004B454400A2
:00000001FF
